:020000040800F2
:1000000000280020890700082D0700083307000892
:10001000390700083F0700084507000800000000F6
:100020000000000000000000000000004B07000876
:100030005707000800000000630700086F0700086A
:10004000D1070008D1070008D1070008D107000830
:10005000D1070008D1070008D1070008D107000820
:10006000D1070008D1070008D1070008D107000810
:10007000D1070008D1070008D1070008D107000800
:10008000D1070008D1070008D1070008D1070008F0
:10009000D1070008D1070008D1070008D1070008E0
:1000A000D1070008D1070008D1070008D1070008D0
:1000B000D1070008D107000800000000D1070008A0
:1000C000D10700080000000000000000D107000870
:1000D00000000000D1070008D10700080000000060
:1000E000D1070008D1070008D10700080000000070
:1000F0000000000000000000000000000000000000
:0C01000000000000000000005FF808F1A3
:10010C0010B5054C237833B9044B13B10448AFF345
:10011C0000800123237010BD0C00002000000000A3
:10012C00DC15000808B5034B1BB103490348AFF3BA
:10013C00008008BD0000000010000020DC15000845
:10014C0080B582B000AF78607B68002B28D100228C
:10015C0080216D4800F01CFE00224FF480716A482B
:10016C0000F016FE00224FF40071674800F010FEFC
:10017C0000224FF48061644800F00AFE00224FF424
:10018C000061614800F004FE00224FF480515E488B
:10019C0000F0FEFD01224FF400515B4800F0F8FD29
:1001AC007B68012B28D101228021574800F0F0FDFB
:1001BC0000224FF48071544800F0EAFD00224FF405
:1001CC000071514800F0E4FD01224FF480614E486B
:1001DC0000F0DEFD01224FF400614B4800F0D8FD29
:1001EC0001224FF48051484800F0D2FD01224FF417
:1001FC000051454800F0CCFD7B68022B28D1002231
:10020C008021414800F0C4FD00224FF480713E482B
:10021C0000F0BEFD01224FF400713B4800F0B8FD28
:10022C0000224FF48061384800F0B2FD00224FF4F8
:10023C000061354800F0ACFD01224FF4805132488A
:10024C0000F0A6FD00224FF400512F4800F0A0FD55
:10025C007B68032B28D1002280212B4800F098FDCD
:10026C0000224FF48071284800F092FD00224FF4D8
:10027C000071254800F08CFD00224FF4806122486B
:10028C0000F086FD01224FF400611F4800F080FD54
:10029C0001224FF480511C4800F07AFD00224FF4EB
:1002AC000051194800F074FD7B68042B28D1012201
:1002BC008021154800F06CFD00224FF4807112482B
:1002CC0000F066FD00224FF400710F4800F060FD55
:1002DC0001224FF480610C4800F05AFD01224FF4CA
:1002EC000061094800F054FD00224FF4805106488B
:1002FC0000F04EFD00224FF40051034800F048FD81
:10030C0000BF0837BD4680BD0008014080B500AF76
:10031C0001224FF480611F4800F03AFD00224FF497
:10032C0000611C4800F034FD00220121194800F046
:10033C002FFD01220221174800F02AFD0022042182
:10034C00144800F025FD00220821124800F020FD81
:10035C00012240210F4800F01BFD002220210D48F6
:10036C0000F016FD002210210A4800F011FD0122B8
:10037C004FF40071074800F00BFD00224FF4807120
:10038C00044800F005FD00228021024800F000FD29
:10039C0000BF80BD000C014080B500AF00224FF4BF
:1003AC0080611F4800F0F4FC01224FF400611C48EE
:1003BC0000F0EEFC00220121194800F0E9FC0022BB
:1003CC000221174800F0E4FC01220421144800F03B
:1003DC00DFFC00220821124800F0DAFC0022402148
:1003EC000F4800F0D5FC012220210D4800F0D0FC74
:1003FC00002210210A4800F0CBFC00224FF40071BF
:10040C00074800F0C5FC01224FF48071044800F04D
:10041C00BFFC00228021024800F0BAFC00BF80BD66
:10042C00000C014080B500AF00224FF480611F48E2
:10043C0000F0AEFC00224FF400611C4800F0A8FC58
:10044C0001220121194800F0A3FC002202211748C7
:10045C0000F09EFC00220421144800F099FC0122BB
:10046C000821124800F094FC002240210F4800F0B3
:10047C008FFC002220210D4800F08AFC0122102163
:10048C000A4800F085FC00224FF40071074800F088
:10049C007FFC00224FF48071044800F079FC0122AB
:1004AC008021024800F074FC00BF80BD000C0140AC
:1004BC0080B500AF00F088F900F068F800F0A2F801
:1004CC00304B1B68022B38D0022B4FDC002B02D098
:1004DC00012B19D04AE02C4B1B68C3F104031846BE
:1004EC00FFF72EFEFFF712FF274B1B680133264A3E
:1004FC001360254B1B68042B3ADD234B00221A603A
:10050C00204B01221A6033E01F4B1B68C3F101031F
:10051C001846FFF715FEFFF73FFF1B4B1B68013317
:10052C00194A1360184B1B68012B23DD164B002254
:10053C001A60144B02221A601CE0134B1B68C3F1A7
:10054C0002031846FFF7FCFDFFF76CFF0E4B1B6810
:10055C0001330D4A13600C4B1B68022B0CDD0A4B4C
:10056C0000221A60074B00221A6005E000BF04E06D
:10057C0000BF02E000BF00E000BF4FF47A7000F053
:10058C0085F99DE7280000202C00002080B590B054
:10059C0000AF07F1180328220021184601F010F8CB
:1005AC003B1D00221A605A609A60DA601A610223BD
:1005BC00BB610123BB621023FB6200237B6307F149
:1005CC001803184600F0FCFB0346002B01D000F08A
:1005DC006FF80F237B600023BB600023FB600023BC
:1005EC003B6100237B613B1D0021184600F068FE37
:1005FC000346002B01D000F05BF800BF4037BD462E
:10060C0080BD000080B586B000AF07F10803002262
:10061C001A605A609A60DA60224B9B69214A43F057
:10062C00040393611F4B9B6903F004037B607B689D
:10063C001C4B9B691B4A43F008039361194B9B6944
:10064C0003F008033B603B6800224FF47E511648D0
:10065C0000F09EFB002240F6FF71144800F098FB5E
:10066C004FF47E53BB600123FB6000233B610223EC
:10067C007B6107F1080319460B4800F00FFA40F6AE
:10068C00FF73BB600123FB6000233B6102237B6192
:10069C0007F108031946054800F000FA00BF1837A7
:1006AC00BD4680BD0010024000080140000C014016
:1006BC0080B400AF72B600BFFEE7000080B485B016
:1006CC0000AF154B9B69144A43F001039361124B25
:1006DC009B6903F00103BB60BB680F4BDB690E4ADF
:1006EC0043F08053D3610C4BDB6903F080537B6088
:1006FC007B680A4B5B68FB60FB6823F0E063FB6084
:10070C00FB6843F08063FB60044AFB68536000BFE6
:10071C001437BD4680BC70470010024000000140F9
:10072C0080B400AFFEE780B400AFFEE780B400AF4A
:10073C00FEE780B400AFFEE780B400AFFEE780B404
:10074C0000AF00BFBD4680BC704780B400AF00BF97
:10075C00BD4680BC704780B400AF00BFBD4680BCB6
:10076C00704780B500AF00F075F800BF80BD80B455
:10077C0000AF00BFBD4680BC70470000FFF7F7FF1D
:10078C000B480C490C4A002302E0D458C4500433E3
:10079C00C4188C42F9D3094A094C002301E01360B8
:1007AC000432A242FBD300F0E7FEFFF781FE704754
:1007BC00000000200C000020201600080C00002077
:1007CC0034000020FEE7000080B500AF084B1B682A
:1007DC00074A43F010031360032000F02BF90F209D
:1007EC0000F008F8FFF76AFF0023184680BD00BF31
:1007FC000020024080B582B000AF7860124B1A68BE
:10080C00124B1B7819464FF47A73B3FBF1F3B2FB1E
:10081C00F3F3184600F035F90346002B01D0012301
:10082C000EE07B680F2B0AD8002279684FF0FF305E
:10083C0000F00BF9064A7B681360002300E00123EB
:10084C0018460837BD4680BD000000200800002077
:10085C000400002080B400AF054B1B781A46054BF2
:10086C001B681344034A136000BFBD4680BC70472D
:10087C00080000203000002080B400AF024B1B6841
:10088C001846BD4680BC70473000002080B584B04F
:10089C0000AF7860FFF7F0FFB8607B68FB60FB6827
:1008AC00B3F1FF3F05D00A4B1B781A46FB68134483
:1008BC00FB6000BFFFF7E0FF0246BB68D31AFA6883
:1008CC009A42F7D800BF00BF1037BD4680BD00BFAD
:1008DC000800002080B485B000AF78607B6803F01E
:1008EC000703FB600C4BDB68BB60BA684FF6FF0379
:1008FC001340BB60FB681A02BB68134343F0BF6331
:10090C0043F40033BB60044ABB68D36000BF1437A8
:10091C00BD4680BC704700BF00ED00E080B400AF66
:10092C00044BDB681B0A03F007031846BD4680BC6A
:10093C00704700BF00ED00E080B483B000AF034609
:10094C003960FB7197F90730002B0ADB3B68DAB290
:10095C000C4997F907301201D2B20B4483F80023EB
:10096C000AE03B68DAB20849FB7903F00F03043B59
:10097C001201D2B20B441A7600BF0C37BD4680BCB4
:10098C00704700BF00E100E000ED00E080B489B0EA
:10099C0000AFF860B9607A60FB6803F00703FB6195
:1009AC00FB69C3F10703042B28BF0423BB61FB695C
:1009BC000433062B02D9FB69033B00E000237B6167
:1009CC004FF0FF32BB6902FA03F3DA43BB681A40FB
:1009DC007B699A404FF0FF317B6901FA03F3D943ED
:1009EC007B680B40134318462437BD4680BC7047C8
:1009FC0080B582B000AF78607B68013BB3F1807F3B
:100A0C0001D301230FE00A4A7B68013B53600F219D
:100A1C004FF0FF30FFF790FF054B00229A60044B1C
:100A2C0007221A60002318460837BD4680BD00BF58
:100A3C0010E000E080B582B000AF78607868FFF716
:100A4C0049FF00BF0837BD4680BD80B586B000AFFA
:100A5C000346B9607A60FB7300237B61FFF75EFF8E
:100A6C0078617A68B9687869FFF790FF024697F960
:100A7C000F3011461846FFF75FFF00BF1837BD4611
:100A8C0080BD80B582B000AF78607868FFF7B0FFAA
:100A9C00034618460837BD4680BD000080B48BB0B5
:100AAC0000AF7860396000237B6200233B6248E131
:100ABC0001227B6A02FA03F3FB613B681B68FA694B
:100ACC001340BB61BA69FB699A4240F037813B68BD
:100ADC005B68A34A93425ED0A14A934275D8A14A5F
:100AEC00934258D09F4A93426FD89F4A934252D018
:100AFC009D4A934269D89D4A93424CD09B4A93425B
:100B0C0063D89B4A934246D0994A93425DD8122BA4
:100B1C002AD8122B59D801A252F823F0A30B0008A3
:100B2C007D0B00088F0B0008D10B0008D70B0008B9
:100B3C00D70B0008D70B0008D70B0008D70B000801
:100B4C00D70B0008D70B0008D70B0008D70B0008F1
:100B5C00D70B0008D70B0008D70B0008D70B0008E1
:100B6C00850B0008990B0008824A934213D02CE0A5
:100B7C003B68DB683B6229E03B68DB6804333B6223
:100B8C0024E03B68DB6808333B621FE03B68DB68B2
:100B9C000C333B621AE03B689B68002B02D10423A8
:100BAC003B6213E03B689B68012B05D108233B6239
:100BBC007B68FA691A6109E008233B627B68FA6971
:100BCC005A6103E000233B6200E000BFBB69FF2BCE
:100BDC0001D87B6801E07B6804337B61BB69FF2B28
:100BEC0002D87B6A9B0002E07B6A083B9B003B615E
:100BFC007B691A680F213B6901FA03F3DB431A4046
:100C0C00396A3B6901FA03F31A437B691A603B6842
:100C1C005B6803F08053002B00F09080564B9B696F
:100C2C00554A43F001039361534B9B6903F0010355
:100C3C00BB60BB68514A7B6A9B08023352F8233075
:100C4C00FB607B6A03F003039B000F2202FA03F3A1
:100C5C00DB43FA681340FB607B68494A93420DD032
:100C6C007B68484A934207D07B68474A934201D13C
:100C7C00022304E0032302E0012300E000237A6A4C
:100C8C0002F0030292009340FA681343FB603B4965
:100C9C007B6A9B080233FA6841F823203B685B6847
:100CAC0003F48013002B06D0384B9A683749BB6984
:100CBC0013438B6006E0354B9A68BB69DB433349C1
:100CCC0013408B603B685B6803F40013002B06D069
:100CDC002E4BDA682D49BB691343CB6006E02B4BD6
:100CEC00DA68BB69DB4329491340CB603B685B681E
:100CFC0003F40033002B06D0244B5A682349BB69FC
:100D0C0013434B6006E0214B5A68BB69DB431F4918
:100D1C0013404B603B685B6803F48033002B06D0B8
:100D2C001A4B1A681949BB6913430B6006E0174B41
:100D3C001A68BB69DB43154913400B607B6A0133AE
:100D4C007B623B681A687B6A22FA03F3002B7FF400
:100D5C00AFAE00BF00BF2C37BD4680BC704700BF94
:100D6C000000321000003110000022100000211091
:100D7C000000121000001110001002400000014091
:100D8C0000080140000C014000100140000401402B
:100D9C0080B483B000AF78600B467B8013467B70C9
:100DAC007B78002B03D07A887B681A6103E07B8800
:100DBC001A047B681A6100BF0C37BD4680BC7047B3
:100DCC0080B586B000AF78607B68002B01D1012321
:100DDC006CE27B681B6803F00103002B00F087803A
:100DEC00924B5B6803F00C03042B0CD08F4B5B68AD
:100DFC0003F00C03082B12D18C4B5B6803F480338B
:100E0C00B3F5803F0BD1894B1B6803F40033002BE7
:100E1C006CD07B685B68002B68D1012346E27B6851
:100E2C005B68B3F5803F06D1804B1B687F4A43F467
:100E3C00803313602EE07B685B68002B0CD17B4BFE
:100E4C001B687A4A23F480331360784B1B68774A0B
:100E5C0023F4802313601DE07B685B68B3F5A02F3F
:100E6C000CD1724B1B68714A43F4802313606F4B97
:100E7C001B686E4A43F4803313600BE06B4B1B68AA
:100E8C006A4A23F480331360684B1B68674A23F467
:100E9C00802313607B685B68002B13D0FFF7ECFC9E
:100EAC00386108E0FFF7E8FC02463B69D31A642B73
:100EBC0001D90323FAE15D4B1B6803F40033002BCB
:100ECC00F0D014E0FFF7D8FC386108E0FFF7D4FC51
:100EDC0002463B69D31A642B01D90323E6E1534B39
:100EEC001B6803F40033002BF0D100E000BF7B68DB
:100EFC001B6803F00203002B63D04C4B5B6803F0C0
:100F0C000C03002B0BD0494B5B6803F00C03082B34
:100F1C001CD1464B5B6803F48033002B16D1434B3A
:100F2C001B6803F00203002B05D07B681B69012BA7
:100F3C0001D00123BAE13D4B1B6823F0F8027B681A
:100F4C005B69DB00394913430B603AE07B681B6932
:100F5C00002B20D0364B01221A60FFF78DFC386134
:100F6C0008E0FFF789FC02463B69D31A022B01D932
:100F7C0003239BE12D4B1B6803F00203002BF0D0E5
:100F8C002A4B1B6823F0F8027B685B69DB0027495E
:100F9C0013430B6015E0264B00221A60FFF76CFC24
:100FAC00386108E0FFF768FC02463B69D31A022B54
:100FBC0001D903237AE11D4B1B6803F00203002BBC
:100FCC00F0D17B681B6803F00803002B3AD07B68D8
:100FDC009B69002B19D0174B01221A60FFF74CFCB0
:100FEC00386108E0FFF748FC02463B69D31A022B34
:100FFC0001D903235AE10D4B5B6A03F00203002B6A
:10100C00F0D0012000F09AFA1CE00A4B00221A6082
:10101C00FFF732FC38610FE0FFF72EFC02463B690C
:10102C00D31A022B08D9032340E100BF0010024061
:10103C0000004242800442429E4B5B6A03F0020372
:10104C00002BE9D17B681B6803F00403002B00F034
:10105C00A6800023FB75974BDB6903F08053002BB4
:10106C000DD1944BDB69934A43F08053D361914B80
:10107C00DB6903F08053BB60BB680123FB758E4BAF
:10108C001B6803F48073002B18D18B4B1B688A4AA6
:10109C0043F480731360FFF7EFFB386108E0FFF750
:1010AC00EBFB02463B69D31A642B01D90323FDE009
:1010BC00814B1B6803F48073002BF0D07B68DB68DA
:1010CC00012B06D17B4B1B6A7A4A43F00103136256
:1010DC002DE07B68DB68002B0CD1764B1B6A754AC4
:1010EC0023F001031362734B1B6A724A23F004034F
:1010FC0013621CE07B68DB68052B0CD16D4B1B6A03
:10110C006C4A43F0040313626A4B1B6A694A43F04E
:10111C00010313620BE0674B1B6A664A23F0010361
:10112C001362644B1B6A634A23F0040313627B68EB
:10113C00DB68002B15D0FFF79FFB38610AE0FFF747
:10114C009BFB02463B69D31A41F28832934201D988
:10115C000323ABE0574B1B6A03F00203002BEED0CA
:10116C0014E0FFF789FB38610AE0FFF785FB0246C4
:10117C003B69D31A41F28832934201D9032395E09B
:10118C004C4B1B6A03F00203002BEED1FB7D012BB1
:10119C0005D1484BDB69474A23F08053D3617B6808
:1011AC00DB69002B00F08180424B5B6803F00C0381
:1011BC00082B61D07B68DB69022B46D13F4B0022A8
:1011CC001A60FFF759FB386108E0FFF755FB024640
:1011DC003B69D31A022B01D9032367E0354B1B68FB
:1011EC0003F00073002BF0D17B681B6AB3F5803FD2
:1011FC0008D1304B5B6823F400327B689B682D4927
:10120C0013434B602B4B5B6823F474127B68196A95
:10121C007B685B6A0B43274913434B60274B0122C6
:10122C001A60FFF729FB386108E0FFF725FB02463F
:10123C003B69D31A022B01D9032337E01D4B1B68E2
:10124C0003F00073002BF0D02FE01C4B00221A602F
:10125C00FFF712FB386108E0FFF70EFB02463B6913
:10126C00D31A022B01D9032320E0124B1B6803F085
:10127C000073002BF0D118E07B68DB69012B01D1E6
:10128C00012313E00B4B5B68FB60FB6803F48032BB
:10129C007B681B6A9A4206D1FB6803F470127B6868
:1012AC005B6A9A4201D0012300E0002318461837EC
:1012BC00BD4680BD001002400070004060004242FC
:1012CC0080B584B000AF786039607B68002B01D1A9
:1012DC000123D0E06A4B1B6803F007033A689A427B
:1012EC0010D9674B1B6823F0070265493B68134311
:1012FC000B60634B1B6803F007033A689A4201D0FA
:10130C000123B8E07B681B6803F00203002B20D09C
:10131C007B681B6803F00403002B05D0594B5B68FA
:10132C00584A43F4E06353607B681B6803F008037E
:10133C00002B05D0534B5B68524A43F46053536007
:10134C00504B5B6823F0F0027B689B684D4913435C
:10135C004B607B681B6803F00103002B40D07B685B
:10136C005B68012B07D1474B1B6803F40033002B40
:10137C0015D101237FE07B685B68022B07D1414BC1
:10138C001B6803F00073002B09D1012373E03D4B64
:10139C001B6803F00203002B01D101236BE0394BD6
:1013AC005B6823F003027B685B68364913434B6030
:1013BC00FFF762FAF8600AE0FFF75EFA0246FB6894
:1013CC00D31A41F28832934201D9032353E02D4BB7
:1013DC005B6803F00C027B685B689B009A42EBD164
:1013EC00274B1B6803F007033A689A4210D2244B30
:1013FC001B6823F0070222493B6813430B60204B08
:10140C001B6803F007033A689A4201D0012332E0CB
:10141C007B681B6803F00403002B08D0194B5B6836
:10142C0023F4E0627B68DB68164913434B607B68EE
:10143C001B6803F00803002B09D0124B5B6823F4E4
:10144C0060527B681B69DB000E4913434B6000F054
:10145C0021F802460B4B5B681B0903F00F030A498A
:10146C00CB5C22FA03F3094A1360094B1B6818463C
:10147C00FFF7C0F9002318461037BD4680BD00BFEA
:10148C000020024000100240F4150008000000206B
:10149C000400002080B487B000AF0023FB60002361
:1014AC00BB6000237B6100237B6000233B611E4BF0
:1014BC005B68FB60FB6803F00C03042B02D0082B69
:1014CC0003D027E0194B3B6127E0FB689B0C03F032
:1014DC000F03174AD35C7B60FB6803F48033002B4B
:1014EC0010D0114B5B685B0C03F00103114AD35C09
:1014FC00BB607B680D4A02FB03F2BB68B2FBF3F3E3
:10150C007B6104E07B680C4A02FB03F37B617B6923
:10151C003B6102E0054B3B6100BF3B6918461C3741
:10152C00BD4680BC704700BF0010024000127A001C
:10153C00041600081416000800093D0080B485B09C
:10154C0000AF78600A4B1B680A4AA2FB03235B0AB4
:10155C007A6802FB03F3FB6000BFFB685A1EFA605B
:10156C00002BF9D100BF00BF1437BD4680BC7047BB
:10157C0000000020D34D621070B500260C4D0D4CB0
:10158C00641BA410A64209D100F022F800260A4DD3
:10159C000A4C641BA410A64205D170BD55F8043B3F
:1015AC0098470136EEE755F8043B98470136F2E7C9
:1015BC001816000818160008181600081C16000843
:1015CC0003460244934200D1704703F8011BF9E72C
:1015DC00F8B500BFF8BC08BC9E467047F8B500BF14
:0815EC00F8BC08BC9E467047E4
:1015F40000000000000000000102030406070809BF
:1016040002030405060708090A0B0C0D0E0F10103F
:0416140001020000CF
:041618003101000894
:04161C000D010008B4
:0C16200000127A00100000000100000021
:04000005080007895F
:00000001FF
